:020000040800F2
:10000000080D0020BD010008C5010008C701000857
:1000100000000000000000000000000000000000E0
:10002000000000000000000000000000C9010008FE
:100030000000000000000000D5120008CD010008FB
:10004000CF01000800000000CF010008CF01000828
:10005000CF010008E10D0008CF010008CF01000822
:1000600000000000CF010008CF010008CF01000808
:10007000CF010008CF010008CF01000800000000F8
:100080009D1400080000000000000000CF010008DF
:10009000CF010008CF010008CF010008CF01000800
:1000A000CF010008CF010008CF0100088D1600081D
:1000B000CF01000800F002F800F055F812A030C897
:1000C000083824182D18AC4201D100F04CF80FCCA0
:1000D000A246AB460CA730CF2D1B083F3F197C42F0
:1000E0007F1E54442D090426F441641EAC4201D302
:1000F00000F039F80126334200D0FB1A3343984709
:1001000054465D46DFE70000B02B0000D02B000016
:10011000103A02D378C878C1FAD8520701D330C850
:1001200030C101D504680C607047000070470000C2
:100130000023002400250026103A01D378C1FBD803
:10014000520700D330C100D50B6070471FB500F0D7
:10015000C7F904000020002101F0AAFC401C6060E7
:100160001FBD10B510BD00F007FA1146FFF7EEFFF6
:1001700001F076FC00F01FFA03B4FFF7F2FF03BCB6
:1001800000F022FA70B505460C46164602E00FCC88
:100190000FC5103E102EFAD2082E02D303CC03C591
:1001A000083E042E07D301CC01C5361F03E0217899
:1001B0002970641C6D1C761EF9D270BD07488047FB
:1001C00007480047FEE7FEE7FEE7FEE7FEE7FEE73B
:1001D00004480549034A054B7047000051140008C4
:1001E000B5000008080B0020080D0020080B0020B7
:1001F00010B500F075F9001D10BD00BFB518000066
:10020000F8B5042A2CD3830712D00B78491C03704D
:10021000401C521E83070BD00B78491C0370401CF6
:10022000521E830704D00B78491C0370401C521ED9
:100230008B079B0F05D0C91ADF002023DE1B08C9DE
:100240000AE0FFF79FFFF8BD1D4608C9FD401C46A8
:10025000B4402C4310C0121F042AF5D2F308C91A67
:10026000521EF0D40B78491C0370401C521EEAD475
:100270000B78491C0370401C012AE4D409780170F2
:10028000F8BD431A70B593421BD28918801804E058
:10029000491E401E0B78521E03709307F8D106E0EA
:1002A0001039103878C9103978C01038103A102A2F
:1002B000F6D203E0091F001F0B680360121FF9D577
:1002C00070BDFFF75FFF70BDF8B5064614460843E2
:1002D000800707D0751AA54219D20819102D13D21C
:1002E000311907E03046FFF7CCFFF8BD401E491E2C
:1002F00002780A70641EF9D2F8BD471B2A463946B7
:10030000FFF77EFF641B3846A542F6D3011B224649
:100310003046FFF775FFF8BDD2B210B513029A1838
:1003200013049A1800F00EF810BD01E004C0091F74
:100330000429FBD28B0701D50280801CC90700D09D
:100340000270704700290BD0C30702D00270401C16
:10035000491E022904D3830702D50280801C891E0E
:10036000E3E70022EEE70022DFE7000000220309B6
:100370008B422CD3030A8B4211D300239C464EE0C0
:1003800003460B433CD4002243088B4231D303097C
:100390008B421CD3030A8B4201D394463FE0C3092E
:1003A0008B4201D3CB01C01A524183098B4201D346
:1003B0008B01C01A524143098B4201D34B01C01A31
:1003C000524103098B4201D30B01C01A5241C308A9
:1003D0008B4201D3CB00C01A524183088B4201D318
:1003E0008B00C01A524143088B4201D34B00C01A04
:1003F0005241411A00D201465241104670475DE019
:10040000CA0F00D04942031000D3404253409C46DB
:10041000002203098B422DD3030A8B4212D3890198
:10042000FC2212BA030A8B420CD3890192118B422F
:1004300008D3890192118B4204D389013AD09211D9
:1004400000E08909C3098B4201D3CB01C01A524194
:1004500083098B4201D38B01C01A524143098B425D
:1004600001D34B01C01A524103098B4201D30B0146
:10047000C01A5241C3088B4201D3CB00C01A52416B
:1004800083088B4201D38B00C01A5241D9D2430852
:100490008B4201D34B00C01A5241411A00D201468F
:1004A0005241104663465B1001D34042002B00D5F9
:1004B0004942704763465B1000D3404201B505498D
:1004C000002802DC491C084000E00846C046C0463F
:1004D00002BD00BFFFFFFF7F7047704770470000FD
:1004E00000487047D800002000487047B80000203E
:1004F000024670B50A4392072AD11E4DEE0104C888
:1005000008C9541B9443344017D0D0B2D9B2401A12
:100510002106014310D190B299B2401A210401433F
:100520000AD110021902000A090A401A21020143E5
:1005300002D1100E190E401A70BD9A42DFD010BAC7
:1005400019BA884201D9012070BD0020C04370BD96
:1005500002780B78401C491C002A09D09A4207D126
:1005600002780B78401C491C002A01D09A42EFD037
:10057000D01A70BD010101017546FFF7B5FFAE4607
:10058000050069465346C008C000854618B020B52E
:10059000FFF71EFE60BCB64600260027C0C5C0C5DA
:1005A000C0C5C0C5C0C5C0C5C0C5C0C5403D49085F
:1005B00049008D46704710B50446C046C0462046E7
:1005C000FFF7DAFD10BD000001491820ABBEFEE7C1
:1005D000260002007047000080B50122012900D8E2
:1005E0001146012800D81046491E594A13799B0626
:1005F00001D5537959189279C9B2914203D8401E56
:10060000C0B200F07BFE80BD70B500286AD0044601
:100610001F2808D81B2C18D14D48417CF0220A40D5
:10062000511C417470BD4A4D6E7C0F20304004282F
:1006300058D8C0467844007940008744020A1924FB
:100640003700204601F086F970BD204600F0F6F92B
:1006500070BD5B2C3BD1284613301121FFF781FE82
:10066000F0200640B01C6874A87CC021014008E05E
:10067000F0200640F01C68743F2C04D1A87C202197
:100680000143A97470BDFFF7B3FD0068005D202829
:1006900010D1A97C1F2008400F2823D82818017DDD
:1006A0000A224A43A1183039017570BDF020064076
:1006B0006E7470BD3B2C0ED1A87CC10612D4E02113
:1006C0000140401C1F2202405018A87470BD2046F3
:1006D00000F028FB70BDEC7400F040F8687CF0215D
:1006E0000140697470BDC046B0B5D14C2079FE217F
:1006F0000140217120790221014321712079F721E4
:10070000014021712079DF210140217100256571AF
:100710001D20A071E07AFC210140881CE072257246
:100720000C480D490160657220460C30E11D052220
:10073000FFF766FD601C211D0322FFF761FD257098
:10074000607CF0210140617401F02CF8B0BDC0461E
:100750007C0100201C0100202D1A000870B5B44C4B
:10076000E07C4138342800D983E040007844808818
:10077000400087445F00630067006C0071007600F2
:100780007B0034007E00390046009C00A1007E0002
:100790007E007E007E007E00A900AD007E007E000F
:1007A0007E007E007E007E007E007E007E007E0059
:1007B0007E007E007E007E0050017E007E003400C0
:1007C0007E00B1007E007E007E00DF000901500146
:1007D0007E007E007E00230153007E004801217DC3
:1007E000607DFFF7F9FE70BD207D022800D113E186
:1007F000012800D113E1002800D00CE100F0E4FF53
:1008000070BD207D022800D10CE1012800D10CE14F
:10081000002800D0FFE000F097FF70BD20460C30AC
:10082000E11D0522FFF7ECFC601C211D0322FFF7F0
:10083000E7FC70BD207D00F059FA70BD207D00F00E
:10084000A1F970BD1420205600F012FA70BD1420DA
:10085000205600F0BBF970BD1420205600F0C8F9F6
:1008600070BD1420205600F0CFF970BD1420205622
:1008700027E070A001F062F8A07C810603D53F203C
:1008800001F068F8A07C00251F263040854200D981
:10089000BEE06019007D01F0B6F8A07C0640B542CC
:1008A00003D23B2001F056F8A07C6D1CECE7607A87
:1008B000A17900F067FD03E0607AA17900F086FD80
:1008C000012000F077F970BD207D00F0A3FD70BD20
:1008D000207D00F047FD70BDA07C00251F21014058
:1008E0008D4200D997E06119097D192911D0072996
:1008F00017D0142918D006291AD1810618D52079C5
:1009000020210143217101200146FFF765FEA07CF3
:100910000EE081060CD5E17AFC220A40911CE172BE
:1009200006E02179012201E0217904220A432271A3
:100930006D1CD3E7A67C00251F20304085426AD875
:100940006019007D192811D0072814D0142815D05B
:10095000062817D1B00615D52079DF210140217175
:1009600001200146FFF738FEA67C0BE0B00609D552
:1009700000F0FAF806E02079FE2101E02079FB2161
:10098000014021716D1CD7E7A07C1F210140481C4C
:100990002146143100283ED00A781B2A03D0072AAA
:1009A00005D0002A07D1227908239A4302E023794F
:1009B00008221A432271491C401EEBE7207D60711A
:1009C0006079002802D060791F2801D3012060716E
:1009D000607DA071A079002802D0A0791F2801D3E2
:1009E0001E20A0716079401E6071A079401EA07128
:1009F000A0796179884203D26079A1796171A0718F
:100A00006179002001E0A17B607B00F077FC70BD84
:100A1000E07C00F09FFF70BD00F0C4FE70BD00F0F0
:100A2000F1FE70BD00F07AFE70BD00F0A3FE70BD57
:100A30007C0100203C4553433E5B000010B504465A
:100A40001B284FD8A00001A1085887463F0B00087B
:100A5000E50A0008E50A0008E50A0008E50A0008BA
:100A6000330B0008E50A0008330B0008F50A0008FC
:100A7000050B0008BD0A0008BD0A0008BD0A0008F1
:100A8000DD0A00081F0B0008290B0008E50A000812
:100A9000330B0008E50A0008330B0008E50A0008DC
:100AA000E50A0008E50A0008E50A0008330B00081B
:100AB000E50A0008330B0008410B0008012000F094
:100AC00061F8002806D1C3480079800702D50120CB
:100AD00000F0A0FCBF48007940072AD5012000F0B3
:100AE00069F826E05E2000F035FF4034E0B200F007
:100AF00031FF1EE0B74C207A002827D0012000F0FB
:100B000065F816E0B348007A072101400820441A2E
:100B100020060ED0202000F01DFF641EF8E7AD482F
:100B2000017910220A4303E0AA480179EF220A4022
:100B30000271A848407C0F218843A649487410BD23
:100B4000A448417C012008430E21F5E72079C00725
:100B5000EFD000F003FA0028EBD0607A401EC1B25B
:100B60004F2000F0CBFBE4E79A48C17AFC220A4010
:100B7000C272C179027A407A5023434398185A4A84
:100B80001154704780B50146012800D80121914ACF
:100B900090795379C31A00208B4209DB537A591894
:100BA000C9B29379994203D8107A00F0A7FB0120CB
:100BB00080BDC04680B5C0B2012800D80120401ECB
:100BC000C0B2EB49497A00F099FB80BD80B5C0B254
:100BD000012800D8012042B2E5490B7A9A4205DC8F
:100BE0000A7A101AC0B2497A00F088FB80BDC0466C
:100BF00080B5C0B2FFF7C6FF002804D0DC48417AB8
:100C0000002000F07BFB80BD80B5C0B200F06EF824
:100C1000002804D0D648417A002000F06FFB80BD48
:100C2000D348817AE0220A4019328272817ADF2227
:100C30000A408272017A427A5023534359182A4A51
:100C4000515CC1717047C04610B5C94C207C03226D
:100C50001040E17AFC230B401818E072201D611C43
:100C6000FFF7CEFAA17B607B00F048FB10BDC046C9
:100C700080B5C0B2012800D8012042B2BC490B7A2D
:100C80009A184F2A05DC0A7A1018C0B2497A00F087
:100C900035FB80BD10B5B648817ADF220A408272EA
:100CA000817A490609D4C17A890713D0C17A03220F
:100CB0000A40012A03D15F2105E0C17903E07F21C9
:100CC000CA43C1795140027A437A50245C43A21846
:100CD000054B9954817A40221140837ABF241C40ED
:100CE00061185140817210BDA801002010B5044662
:100CF000012800D8012400F031F9844201D90020F4
:100D000010BD9B48417A091BC9B2007A00F0F6FA7F
:100D1000012010BD0249087008780028FCD17047F6
:100D20001801002010B5044635381A281FD8C046CF
:100D300078440079400087441E1E0D332929294636
:100D4000464629292929293F3629292929292929B6
:100D5000434646001F4C20460C30E11D0522FFF79C
:100D60004FFA601C211D0322FFF74AFA2BE02046B0
:100D70002838022805D21748417C042008430B215B
:100D800024E0632C02D1FFF7AFFC1CE012A000F0BE
:100D9000D5FD204600F01EFE3E2000F0DBFD12E0F7
:100DA000FFF752FF0FE001242046FFF703FF204624
:100DB000FFF7E8FE002806D1012000F02BFB02E03F
:100DC000012000F0CFFA0348407C0F2188430149FD
:100DD000487410BD7C0100203C4553433E3C00005C
:100DE00070B535480221016005209F4C205600282F
:100DF00041D433480178002901D10021A180092183
:100E0000017098480088C0070DD06079A188A28839
:100E10002A4B13404006000F012282400A43294812
:100E20001040C018A0806079617987220A40C0080C
:100E3000401C0F210140C800801860710B293AD175
:100E4000A088FF25C00711D1A0881F49491C08426E
:100E50000CD001204002A6880640A0884008C0B2FD
:100E600000F0B2F8864201D1A0884508E9B25448A2
:100E700000F047F80FE06079617987220A40C008E6
:100E8000401C0F210140C8008018607175480C2972
:100E900003D10121816000200CE00121A288D2074A
:100EA00000D109048160A088A188044A0A40400555
:100EB000800D1018A08070BD1404014000F8FFFFE1
:100EC00019010020FF070000FF03000000218170CE
:100ED00041707047427883789A4201D10020704770
:100EE000027883785B1C1340837082788018C07806
:100EF00008700120704741788078081A411E8841A7
:100F0000704710B5027843785B1C13408478A34285
:100F100001D1002010BD43785B1C13404370427820
:100F20008018C170012010BD1CB5044601A92046DF
:100F3000FFF7D0FF0028F9D001A800781CBDB0B59C
:100F40000346002004468C4206D21D78954202D00A
:100F5000641C9B1CF7E75878B0BD0000F2490A7981
:100F6000487A920601D54979401AC0B27047C04606
:100F70007C01002080B51048002101600F4802224A
:100F8000C260036813430360D148C1808180017847
:100F9000FC220A400270B548FFF798FFFF200002CC
:100FA00008490A6882430320800310180860D24869
:100FB0002021016080BDC0460800014000040140BE
:100FC0005800002004E400E008220021130606D0A7
:100FD000012303405918521EC0B24008F6E7012011
:100FE0004202C807800D504070470000F8B5044623
:100FF000FF271C4EB64D38060BD068794006000F0F
:1010000002D13088800706D40720FFF783FE7F1EB9
:10101000F1E7002423E0B748202100910160670038
:101020002046FFF7D1FF38431F21C902AA880A4092
:1010300002430124A0021043A88068798021014363
:101040006971AD480099016004252846FFF762FEEA
:101050006004B0602846FFF75DFE0220B0602046C5
:10106000F8BDC04610000048A001002070B57F4CBC
:101070002046FFF759FFAA280BD00246FF280FD1C0
:101080007B480178FC220A400270FF20FFF7AEFF88
:1010900070BD77480178FC220A40511C017070BD78
:1010A000734D2878032601463140C04679440979BA
:1010B00049008F440107101AFA2AE6D0FC210840A3
:1010C000401C2870002A33D0F02A15D0E02A18D10D
:1010D000E888802113E0FE2A22D0FA2A25D1A878B8
:1010E000FFF784FF2878304321E0FC210840FA2AEA
:1010F0001DD1012108431AE001200002E9880143C3
:101100006BE0EE88F00514D4100908281FD8594860
:10111000825C582A1BD85020064233D0574832E010
:1011200068780028B2D0ED20B0E7FC210840287094
:1011300070BD1009082801D84E48825C300608D4DA
:10114000502006420BD0582A0DD84C480AE01046D1
:101150001AE049481221FFF7F2FE024603E0582A3E
:1011600001D84748825C2032D0B20D2832D8454998
:10117000C140C8072ED050B2400043A1085A3040A9
:10118000E88027E03E48805C0146E0390D290CD814
:101190007944097949008F44060B0B0F1315170D7D
:1011A0000D221D1D1D06082007E0002812D01EE09C
:1011B000102002E0402000E020200643EE8009E0FD
:1011C000042002E0022000E001204640EE80F0B260
:1011D00000F06EF8E88835490140E98070BDB0073D
:1011E00001D5314800E02F480E21FFF7A8FE002866
:1011F000F0D041B2002914D4310724D4014641393A
:10120000C9B21A2904D301466139C9B2192928D8AB
:10121000710726D501466139C9B21A2921D2203871
:101220001FE041090629D5D87F21C9434840C6B2ED
:10123000152ECFD81B2000F085F8B000201880684C
:1012400000F074F8C6E7E02102460A40402A01D1C6
:10125000002104E00246613AD2B2192ABAD84018F5
:101260004038C0B200F06EF8B4E7C0465800002025
:10127000A0010020382B0008DC1A0008C82B000849
:10128000212C00088F210000F7FFEFFFEFFFDFFFA9
:10129000F7FFF7FFF7FFBFFFBFFFF7FFF7FFF7FF0E
:1012A000F7FFF7FF1C2B0008002B00087FFE000053
:1012B00080B5074901224A70072202408A700878E7
:1012C000FC220240901C0870ED20FFF78FFE80BDCD
:1012D000A00100200120C0060649086020220A6003
:1012E000E9490B6803430B6030BF034908600A609B
:1012F0007047C04680E100E000E100E070B5534C6B
:10130000E279237A657A50266E43F318DD4DEA546C
:101310004F2807D81D2905D820726172FFF780FC7D
:101320000020207070BDC0467C01002010B504462E
:10133000002C06D02078002803D000F003F8641CAD
:10134000F6E710BDB0B50446F24D28462146FFF73A
:10135000D8FD0028F9D0EE48016880220A430260D7
:10136000B0BDC046B0B50446012800D80124F44DF4
:10137000200605D06879A97900F004F8641EF7E723
:10138000B0BDC04670B5EE4EF279337A757A50240E
:101390006543EB18EB4DEA54814208D90A1A6243BF
:1013A0004443291908465030FEF78EFF00E04443BD
:1013B0003079000701D5A02200E020222819502111
:1013C000FEF7AAFFFFF72CFC70BDC046F8B50C462F
:1013D000F24FF9793A7A7B7A50256B439A18F04E9E
:1013E000B154844207D9221A6A436843301801462F
:1013F0005031FEF769FF3879000701D5A02200E0DF
:1014000020226C4330192946FEF786FFFFF708FCBF
:10141000F8BDC04670B50446012800D80124F84D37
:10142000E84E200611D06879A979FFF7CFFFA87997
:101430002979090701D5A02200E020225021484344
:101440003018FEF769FF641EEBE770BD7C010020D9
:10145000104811210160012002040F490B68134359
:101460000B600B689B03FCD54A6002060B681343B4
:101470000B600A689201FCD54A68022313434B6053
:101480004A680C231340082BFAD10A6882430A6089
:101490007047C0460020024000100240FEB5704E6A
:1014A000308840072BD43088C00700D1D2E06F4D80
:1014B000A889411CA9817049884270D0042876D03F
:1014C00024287FD0252863D081218900884200D13B
:1014D00091E06A4988425FD0022800D08FE0012065
:1014E000400567490860E87B4007C00F801C022860
:1014F00000D0B0E030892821014331817FE0594894
:10150000594901605949CC7BE2070AD1A0075948E3
:1015100000D49CE031214901316301214903B181AB
:1015200095E001948A7B5248029286188A680027C7
:101530001923232F0DD8CC18D518113D2878000178
:10154000305CC85468780001305C60709B1C7F1C64
:10155000EFE70298431C8B73D8B2102803D1002305
:101560008B7350328A603E4E019C414DD8B22B188D
:1015700011310025032DC9D810780001185C0870BE
:1015800050780001185C4870921C6D1C891CF1E7B2
:10159000E87B0221014331E0E87BFD212DE00020C2
:1015A000A873A8816868002829D0804727E0E87BD5
:1015B000010703D4324820210160E87B9B49A960E0
:1015C000FC211AE0E87B01210143E973A87B28494B
:1015D000081829461131AA680023032B0FD8147864
:1015E0002401045D0C7054782401045D4C70921C3D
:1015F0005B1C891CF1E7E87BFE210140E973E87B75
:10160000800713D5174801680122914301605221D8
:10161000416029461031C160092040013063100348
:10162000B081100718490A6802430A602878002828
:1016300002D02878401E28706878002804D00D4811
:101640006978491E697001E00420C043C01C3188DC
:1016500001403180FEBD3089282188433081CEE7AA
:1016600010040040300002409130000018010020BA
:10167000001B0008FBFF00000D0200000502000037
:1016800018000048A801002004ED00E01CB5204C23
:10169000E069800605D51F481330A18CC9B2FFF759
:1016A00030FCE06900060DD51A4801A9FFF712FCCD
:1016B000002803D001A8007820851CBD2068802167
:1016C000884320601CBDC046B0B50125A8030F4962
:1016D0000A6802430A60D92040000D4988812D2004
:1016E00008600C4C20461330FFF7F0FB2046FFF754
:1016F000EDFBFF20000608490A68824303208007AB
:1017000010180860E8068A490860B0BD1810024049
:10171000003801400000002018E400E080B5CF4907
:10172000487A0979090701D5A02200E0202250213A
:1017300048433E4B1818FEF7EFFDFFF771FA80BDE6
:101740007C010020A801002010B5C449087A4B7A1A
:101750000A79120701D5A02200E020225024634319
:101760001818324B1818097A611AFEF7D5FDFFF7E1
:1017700057FA10BD80B5B949487A0A79120701D5E0
:10178000A02200E02022502343432848C018097AB1
:10179000491CFEF7C1FDFFF743FA80BD7C01002024
:1017A000A801002080B5AD480079000701D5A0222E
:1017B00000E020224B2041011C48FEF7ADFDFFF761
:1017C0002FFA80BDA8010020B0B5A449087A4B7A51
:1017D0000A79120701D5A02200E020225024634399
:1017E0001818124B18184B7A1D25EB1A6343097A07
:1017F000591A5031FEF790FDFFF712FAB0BDC046FE
:101800007C01002080B595480179090701D5A02207
:1018100000E02022417A50234B43007AC018411C3B
:101820000248FEF779FDFFF7FBF980BDA801002013
:1018300070B532480168324A0A4302604168314A51
:101840000A434260816802220A4382600920C1067D
:101850002D480860012002060A620205CA600322C0
:101860008A808A61112212014A62C2038A60274972
:1018700008230B6010240C62254C042525608B6026
:10188000244BC021596368211983D22199632249CD
:101890001984002119851924A401DC629C8905257D
:1018A0002C439C819C8A04439C821C4C26881643B2
:1018B00026801A882A431A80C1229200184B1A8067
:1018C000184A9A801A88402414431C800C33164A04
:1018D0001360164A1368FF24A34313600204144BD9
:1018E0001A602204134C256895438205AA182260C9
:1018F000114A91818007186070BDC04614100240E3
:10190000010046000150000055A5282800040048A9
:10191000001400480004004003100000440400408C
:1019200000300140120700003800024010E400E0DF
:1019300000E100E020ED00E01801002010B50446B1
:10194000002C06D02078002803D000F003F8641C97
:10195000F6E710BDB0B5414C2179C90601D4014666
:1019600001E00146603942B25F2A00DC014620797D
:10197000C008C5010D432078002810D02079C00789
:1019800002D1E571207A15E0607AA179884203D20C
:10199000607A401CC1B217E02079800710D4E5714D
:1019A000217A207A4E2905D8617A401CC0B2FFF70F
:1019B000A5FCB0BD617AFFF7A1FC01202070B0BD8D
:1019C0000120FFF727FD617A0020FFF797FCE57102
:1019D000B0BDC04610B50446000901463031392972
:1019E00001D8084600E03730FFF7B4FF0F2004406D
:1019F00020463030392801D8044600E037342046EC
:101A0000FFF7A8FF10BD10B504460A2805D30A2128
:101A10002046FEF7ABFCFFF7F6FF0A212046FEF753
:101A2000A5FC30200843FFF795FF10BD0B48817AD5
:101A3000491C1F220A40837AE0210B409A188272C7
:101A4000827A1E2313401E2B06D1827A2023134351
:101A50008372827A0A4082727047C0467C010020FD
:101A6000FFF7E6FEFFF730FEFFF784FAFEF73CFED5
:101A70000C4C0D4D0D4E2046FFF73DFA002804D0CA
:101A80002046FFF751FAFEF7BFFD2846FFF733FA6D
:101A9000002801D0FFF7EAFAF0788006EBD5FFF7CF
:101AA000F9F8E8E713000020580000208301002027
:101AB00010B500290AD00878002807D005487844D6
:101AC000FEF716FD002801D0002010BD0248784422
:101AD00010BD00001A120000121200001C0D1DEDB6
:101AE0002AE7352F36E837EA38EB46EC478C488D45
:101AF000498E4B8F4D904F915092519352945395E4
:101B000000000000000000000000000000000000D5
:101B100055AA55AA55AA55AA55AA55AA55AA55AACD
:101B20000000000000FEFEFEFEFEFE0000000000C1
:101B30000000000000000000FFFFFFFFFFFFFFFFAD
:101B4000FFFFFFFFFFFFFFFF00000000000000009D
:101B500000000000101038387C7CFEFE0000000001
:101B600000000000FEFE7C7C3838101000000000F1
:101B7000000000040C1C3C7C3C1C0C040000000019
:101B8000000000406070787C7870604000000000C9
:101B900000000000FE0000FE0000FE00000000004B
:101BA00018181818181818F8000000000000000095
:101BB00000000000000000F818181818181818186D
:101BC000000000000000001F181818181818181836
:101BD000181818181818181F00000000000000003E
:101BE00018181818181818FF18181818181818188E
:101BF00000183C7E1818181818181818180000003B
:101C0000001818181818181818187E3C180000002A
:101C100000000000000000FF0000000000000000C5
:101C200000183C7E1818181818187E3C1800000080
:101C3000000000000000181818000000000000005C
:101C4000181818181818181F18181818181818180D
:101C500018181818181818F8181818181818181824
:101C600018181818181818FF0000000000000000CD
:101C700000000000000000FF1818181818181818A5
:101C800018181818181818181818181818181818D4
:101C90000000000000000000000000000000000044
:101CA0000000000000000000000000000000000034
:101CB0000000000000000000000000000000000024
:101CC0000000000000000000000000000000000014
:101CD0000000000000000000000000000000000004
:101CE00000000000000000000000000000000000F4
:101CF00000000000000000000000000000000000E4
:101D000000000000000000000000000000000000D3
:101D10000000183C3C3C3C1818001818000000005B
:101D200000363636361400000000000000000000C7
:101D300000006C6C6CFE6C6CFE6C6C6C0000000047
:101D4000000018187CC6C0783C06C67C1818000035
:101D5000000000000062660C183066C6000000003B
:101D60000000386C3830767ECCCCCC760000000099
:101D7000000C0C0C18000000000000000000000027
:101D800000000C18303030303030180C00000000EB
:101D9000000030180C0C0C0C0C0C1830000000006B
:101DA00000000000006C38FE386C000000000000ED
:101DB000000000000018187E181800000000000045
:101DC0000000000000000000000C0C0C18000000D7
:101DD00000000000000000FE000000000000000005
:101DE00000000000000000000000181800000000C3
:101DF0000000000002060C183060C08000000000E7
:101E000000007CC6C6CEDEF6E6C6C67C000000003A
:101E100000001878181818181818187E000000000C
:101E200000007CC6C6060C183060C6FE000000002C
:101E300000007CC606063C060606C67C00000000C4
:101E400000000C1C3C6CCCCCFE0C0C1E00000000F6
:101E50000000FEC0C0C0FC060606C67C00000000F4
:101E600000007CC6C0C0FCC6C6C6C67C0000000020
:101E70000000FEC6060C1830303030300000000084
:101E800000007CC6C6C67CC6C6C6C67C0000000074
:101E900000007CC6C6C6C67E0606C67C00000000E2
:101EA00000000000000C0C00000C0C000000000002
:101EB00000000000000C0C00000C0C0C18000000CE
:101EC0000000000C183060C06030180C00000000EA
:101ED000000000000000FE00FE0000000000000006
:101EE0000000006030180C060C1830600000000084
:101EF00000007CC6C60C1818180018180000000056
:101F000000007CC6C6C6DEDEDEDCC07E000000004F
:101F10000000386CC6C6C6FEC6C6C6C600000000B5
:101F20000000FC6666667C66666666FC0000000073
:101F300000003C66C2C0C0C0C0C2663C00000000D9
:101F40000000F86C6666666666666CF80000000065
:101F50000000FE6660647C64606066FE0000000055
:101F60000000FE6660647C64606060F00000000059
:101F700000007CC6C6C0C0C0CEC6C67C0000000043
:101F80000000C6C6C6C6FEC6C6C6C6C6000000005D
:101F900000003C18181818181818183C0000000009
:101FA00000003C181818181818D8D8700000000045
:101FB0000000C6C6CCD8F0F0D8CCC6C600000000E1
:101FC0000000F06060606060606266FE000000001B
:101FD0000000C6C6EEEEFED6D6D6C6C6000000008D
:101FE0000000C6C6E6E6F6DECECEC6C6000000009D
:101FF00000007CC6C6C6C6C6C6C6C67C00000000B9
:102000000000FC666666667C606060F000000000B0
:1020100000007CC6C6C6C6C6C6D6D67C0600000072
:102020000000FC6666667C786C6666E60000000070
:1020300000007CC6C0C0701C0606C67C0000000004
:1020400000007E5A181818181818183C00000000D4
:102050000000C6C6C6C6C6C6C6C6C67C000000000E
:102060000000C6C6C6C6C6C6C66C38100000000052
:102070000000C6C6C6D6D6D6FEEEC6C60000000014
:102080000000C6C6C66C38386CC6C6C60000000064
:10209000000066666666663C1818183C0000000082
:1020A0000000FEC6860C183060C2C6FE00000000AC
:1020B00000007C60606060606060607C0000000028
:1020C0000000000080C06030180C06020000000014
:1020D00000007C0C0C0C0C0C0C0C0C7C00000000A8
:1020E0000010386CC6000000000000000000000076
:1020F00000000000000000000000000000FF0000E1
:10210000001818180C00000000000000000000007B
:102110000000000000780C7CCCCCDC7600000000D5
:102120000000E060607C6666666666FC0000000099
:1021300000000000007CC6C0C0C0C67C00000000DB
:1021400000001C0C0C7CCCCCCCCCCC7E0000000065
:1021500000000000007CC6C6FEC0C67C0000000077
:1021600000001C363030FC30303030780000000089
:10217000000000000076CEC6C6CE7606C67C000003
:102180000000E060607C6666666666E6000000004F
:1021900000001818003818181818183C0000000023
:1021A00000000C0C001C0C0C0C0C0CCCCC780000AF
:1021B0000000E0606066666C786C66E60000000017
:1021C00000001818181818181818181C000000001B
:1021D00000000000006CFED6D6C6C6C60000000097
:1021E0000000000000DC66666666666600000000AF
:1021F00000000000007CC6C6C6C6C67C0000000009
:102200000000000000DC666666667C6060F000002E
:10221000000000000076CCCCCCCC7C0C0C1E000066
:102220000000000000DC6660606060F000000000FC
:1022300000000000007CC6C07C06C67C00000000D8
:102240000000303030FC30303030361C00000000F0
:102250000000000000CCCCCCCCCCCC760000000040
:102260000000000000C6C6C6C66C381000000000A2
:102270000000000000C6C6D6D6D6FE6C00000000E6
:102280000000000000C6C66C386CC6C60000000026
:102290000000000000C6C6C6C6CE7606C67C00009A
:1022A0000000000000FE860C183062FE00000000F6
:1022B00000000E18181870181818180E00000000EA
:1022C0000000181818180018181818180000000036
:1022D0000000701818180E18181818700000000068
:1022E000000076DC0000000000000000000000009C
:1022F00000C0A0A0A0C038203020380808080E0078
:10230000FFFFFFFFFFFFFFFFFFFFFFFFFFFFFFFFDD
:10231000AA55AA55AA55AA55AA55AA55AA55AA55C5
:10232000FFFFFFFFFF010101010101FFFFFFFFFFB1
:10233000FFFFFFFFFFFFFFFF0000000000000000A5
:102340000000000000000000FFFFFFFFFFFFFFFF95
:10235000FFFFFFFFEFEFC7C783830101FFFFFFFF11
:10236000FFFFFFFF01018383C7C7EFEFFFFFFFFF01
:10237000FFFFFFFBF3E3C383C3E3F3FBFFFFFFFFB9
:10238000FFFFFFBF9F8F8783878F9FBFFFFFFFFFE9
:10239000FFFFFFFF01FFFF01FFFF01FFFFFFFFFF47
:1023A000E7E7E7E7E7E7E707FFFFFFFFFFFFFFFFDD
:1023B000FFFFFFFFFFFFFF07E7E7E7E7E7E7E7E7E5
:1023C000FFFFFFFFFFFFFFE0E7E7E7E7E7E7E7E7FC
:1023D000E7E7E7E7E7E7E7E0FFFFFFFFFFFFFFFFD4
:1023E000E7E7E7E7E7E7E700E7E7E7E7E7E7E7E764
:1023F000FFE7C381E7E7E7E7E7E7E7E7E7FFFFFF97
:10240000FFE7E7E7E7E7E7E7E7E781C3E7FFFFFF86
:10241000FFFFFFFFFFFFFF00FFFFFFFFFFFFFFFFCB
:10242000FFE7C381E7E7E7E7E7E781C3E7FFFFFFF0
:10243000FFFFFFFFFFFFE7E7E7FFFFFFFFFFFFFFF4
:10244000E7E7E7E7E7E7E7E0E7E7E7E7E7E7E7E723
:10245000E7E7E7E7E7E7E707E7E7E7E7E7E7E7E7EC
:10246000E7E7E7E7E7E7E700FFFFFFFFFFFFFFFF23
:10247000FFFFFFFFFFFFFF00E7E7E7E7E7E7E7E72B
:10248000E7E7E7E7E7E7E7E7E7E7E7E7E7E7E7E7DC
:10249000FFFFFFFFFFFFFFFFFFFFFFFFFFFFFFFF4C
:1024A000FFFFFFFFFFFFFFFFFFFFFFFFFFFFFFFF3C
:1024B000FFFFFFFFFFFFFFFFFFFFFFFFFFFFFFFF2C
:1024C000FFFFFFFFFFFFFFFFFFFFFFFFFFFFFFFF1C
:1024D000FFFFFFFFFFFFFFFFFFFFFFFFFFFFFFFF0C
:1024E000FFFFFFFFFFFFFFFFFFFFFFFFFFFFFFFFFC
:1024F000FFFFFFFFFFFFFFFFFFFFFFFFFFFFFFFFEC
:10250000FFFFFFFFFFFFFFFFFFFFFFFFFFFFFFFFDB
:10251000FFFFE7C3C3C3C3E7E7FFE7E7FFFFFFFF33
:10252000FFC9C9C9C9EBFFFFFFFFFFFFFFFFFFFFA7
:10253000FFFF93939301939301939393FFFFFFFF07
:10254000FFFFE7E783393F87C3F93983E7E7FFFFF9
:10255000FFFFFFFFFF9D99F3E7CF9939FFFFFFFFD3
:10256000FFFFC793C7CF898133333389FFFFFFFF55
:10257000FFF3F3F3E7FFFFFFFFFFFFFFFFFFFFFFA7
:10258000FFFFF3E7CFCFCFCFCFCFE7F3FFFFFFFFC3
:10259000FFFFCFE7F3F3F3F3F3F3E7CFFFFFFFFF23
:1025A000FFFFFFFFFF93C701C793FFFFFFFFFFFF81
:1025B000FFFFFFFFFFE7E781E7E7FFFFFFFFFFFF09
:1025C000FFFFFFFFFFFFFFFFFFF3F3F3E7FFFFFF57
:1025D000FFFFFFFFFFFFFF01FFFFFFFFFFFFFFFF09
:1025E000FFFFFFFFFFFFFFFFFFFFE7E7FFFFFFFF2B
:1025F000FFFFFFFFFDF9F3E7CF9F3F7FFFFFFFFFE7
:10260000FFFF83393931210919393983FFFFFFFF72
:10261000FFFFE787E7E7E7E7E7E7E781FFFFFFFF80
:10262000FFFF833939F9F3E7CF9F3901FFFFFFFF40
:10263000FFFF8339F9F9C3F9F9F93983FFFFFFFF88
:10264000FFFFF3E3C393333301F3F3E1FFFFFFFF36
:10265000FFFF013F3F3F03F9F9F93983FFFFFFFF18
:10266000FFFF83393F3F033939393983FFFFFFFFCC
:10267000FFFF0139F9F3E7CFCFCFCFCFFFFFFFFF48
:10268000FFFF83393939833939393983FFFFFFFF38
:10269000FFFF833939393981F9F93983FFFFFFFFAA
:1026A000FFFFFFFFFFF3F3FFFFF3F3FFFFFFFFFF6A
:1026B000FFFFFFFFFFF3F3FFFFF3F3F3E7FFFFFF7E
:1026C000FFFFFFF3E7CF9F3F9FCFE7F3FFFFFFFF42
:1026D000FFFFFFFFFFFF01FF01FFFFFFFFFFFFFF06
:1026E000FFFFFF9FCFE7F3F9F3E7CF9FFFFFFFFF68
:1026F000FFFF833939F3E7E7E7FFE7E7FFFFFFFF76
:10270000FFFF83393939212121233F81FFFFFFFF5B
:10271000FFFFC7933939390139393939FFFFFFFFD5
:10272000FFFF03999999839999999903FFFFFFFFF7
:10273000FFFFC3993D3F3F3F3F3D99C3FFFFFFFF71
:10274000FFFF07939999999999999307FFFFFFFFC5
:10275000FFFF01999F9B839B9F9F9901FFFFFFFFB5
:10276000FFFF01999F9B839B9F9F9F0FFFFFFFFF91
:10277000FFFF8339393F3F3F31393983FFFFFFFF87
:10278000FFFF39393939013939393939FFFFFFFF4D
:10279000FFFFC3E7E7E7E7E7E7E7E7C3FFFFFFFF81
:1027A000FFFFC3E7E7E7E7E7E727278FFFFFFFFF25
:1027B000FFFF393933270F0F27333939FFFFFFFF69
:1027C000FFFF0F9F9F9F9F9F9F9D9901FFFFFFFF0F
:1027D000FFFF39391111012929293939FFFFFFFF7D
:1027E000FFFF39391919092131313939FFFFFFFF4D
:1027F000FFFF83393939393939393983FFFFFFFF11
:10280000FFFF0399999999839F9F9F0FFFFFFFFFF8
:10281000FFFF83393939393939292983F9FFFFFF16
:10282000FFFF03999999838793999919FFFFFFFFF8
:10283000FFFF83393F3F8FE3F9F93983FFFFFFFF44
:10284000FFFF81A5E7E7E7E7E7E7E7C3FFFFFFFF54
:10285000FFFF39393939393939393983FFFFFFFFFA
:10286000FFFF3939393939393993C7EFFFFFFFFF96
:10287000FFFF39393929292901113939FFFFFFFFB4
:10288000FFFF39393993C7C793393939FFFFFFFF44
:10289000FFFF9999999999C3E7E7E7C3FFFFFFFF06
:1028A000FFFF013979F3E7CF9F3D3901FFFFFFFFBC
:1028B000FFFF839F9F9F9F9F9F9F9F83FFFFFFFF20
:1028C000FFFFFFFF7F3F9FCFE7F3F9FDFFFFFFFF14
:1028D000FFFF83F3F3F3F3F3F3F3F383FFFFFFFF60
:1028E000FFEFC79339FFFFFFFFFFFFFFFFFFFFFF72
:1028F000FFFFFFFFFFFFFFFFFFFFFFFFFF00FFFFE7
:10290000FFE7E7E7F3FFFFFFFFFFFFFFFFFFFFFF2B
:10291000FFFFFFFFFF87F38333332389FFFFFFFFB1
:10292000FFFF1F9F9F83999999999903FFFFFFFFCD
:10293000FFFFFFFFFF83393F3F3F3983FFFFFFFF6B
:10294000FFFFE3F3F383333333333381FFFFFFFFC1
:10295000FFFFFFFFFF833939013F3983FFFFFFFF8F
:10296000FFFFE3C9CFCF03CFCFCFCF87FFFFFFFF5D
:10297000FFFFFFFFFF893139393189F93983FFFFC3
:10298000FFFF1F9F9F83999999999919FFFFFFFF57
:10299000FFFFE7E7FFC7E7E7E7E7E7C3FFFFFFFF63
:1029A000FFFFF3F3FFE3F3F3F3F3F3333387FFFFB7
:1029B000FFFF1F9F9F99999387939919FFFFFFFF2F
:1029C000FFFFE7E7E7E7E7E7E7E7E7E3FFFFFFFF0B
:1029D000FFFFFFFFFF93012929393939FFFFFFFF6F
:1029E000FFFFFFFFFF23999999999999FFFFFFFF37
:1029F000FFFFFFFFFF83393939393983FFFFFFFFBD
:102A0000FFFFFFFFFF2399999999839F9F0FFFFF76
:102A1000FFFFFFFFFF893333333383F3F3E1FFFF1E
:102A2000FFFFFFFFFF23999F9F9F9F0FFFFFFFFF68
:102A3000FFFFFFFFFF83393F83F93983FFFFFFFF6C
:102A4000FFFFCFCFCF03CFCFCFCFC9E3FFFFFFFF34
:102A5000FFFFFFFFFF33333333333389FFFFFFFFC4
:102A6000FFFFFFFFFF3939393993C7EFFFFFFFFF42
:102A7000FFFFFFFFFF39392929290193FFFFFFFFDE
:102A8000FFFFFFFFFF393993C7933939FFFFFFFF7E
:102A9000FFFFFFFFFF393939393189F93983FFFFEA
:102AA000FFFFFFFFFF0179F3E7CF9D01FFFFFFFF6E
:102AB000FFFFF1E7E7E78FE7E7E7E7F1FFFFFFFF5A
:102AC000FFFFE7E7E7E7FFE7E7E7E7E7FFFFFFFFEE
:102AD000FFFF8FE7E7E7F1E7E7E7E78FFFFFFFFF9C
:102AE000FFFF8923FFFFFFFFFFFFFFFFFFFFFFFF48
:102AF000FF3F5F5F5F3FC7DFCFDFC7F7F7F7F1FF4C
:102B0000372A4737483849394A2D4B344C354D36EA
:102B10004E2B4F31503251335230532E372A478C7F
:102B2000488D498E4A2D4B8F4C354D904E2B4F91F1
:102B30005092519352945395FF43413F3D3B3C5833
:102B4000644442403E0F295965382A701D10025ACC
:102B500066712C1F1E11035B672E2D201205045C6D
:102B600068392F211413065D693130232215075E61
:102B70006A7232241608095F6B332517180B0A6036
:102B80006C34352627190C616D7328741A0D626E2A
:102B90003A361C1B752B637655567778797A0E7BFF
:102BA0007C4F7D4B477E7F6F5253504C4D480145C3
:102BB000574E514A37494654808182415485868711
:102BC00088898A8B8C8D8E8F001B21402324255E63
:102BD000262A28295F2B080951574552545955492F
:102BE0004F507B7D0DE04153444647484A4B4C3A99
:102BF000227EE17C5A584356424E4D3C3E3FE22AEB
:102C0000E320E480818283848586878889E5E6E9FC
:102C1000E9E9E9E9E9E9E9E9E9E9302E0000008AB2
:102C20008B001B313233343536373839302D3D087F
:102C30000971776572747975696F705B5D0DE0611C
:102C400073646667686A6B6C3B2760E15C7A7863E3
:102C500076626E6D2C2E2FE22AE320E4808182833F
:102C6000848586878889E5E6E9E9E9E9E9E9E9E92A
:102C7000E9E9E9E9E90000008A8B21003000310030
:102C80003200330034003500360037003800390098
:102C900040004F41004F42004F43004F44005B3122
:102CA0007E005B327E005B337E005B347E005B35F2
:102CB0007E005B367E000000E82D0008000000204A
:102CC000B800000010010008A02E0008B800002085
:102CD000500C00003001000810010000430000000B
:102CE000F8FFFFFF0040404040404040404041412D
:102CF00041414140404040404040404040404040D1
:102D0000404040404005020202020202020202026A
:102D10000202020202202020202020202020200267
:102D200002020202020290909090909010101010F7
:102D30001010101010101010101010101010101093
:102D40000202020202028888888888880808080827
:102D500008080808080808080808080808080808F3
:102D6000020202024000000000000000000000001B
:102D70000000000000000000000000000000000053
:102D80000000000000000000000000000000000043
:102D90000000000000000000000000000000000033
:102DA0000000000000000000000000000000000023
:102DB0000000000000000000000000000000000013
:102DC0000000000000000000000000000000000003
:102DD00000000000000000000000000000000000F3
:102DE00000000000000000000F00000000000000D4
:102DF00000000000000000000000003F0000000094
:102E000000000000000000000000000000000000C2
:102E100000000000000000000000000000000000B2
:102E200000000000000000000000000000000000A2
:102E30000000000000000000000000000000000092
:102E400003000000000000007E2C0008802C000819
:102E5000822C0008842C0008862C0008882C00088E
:102E60008A2C00088C2C00088E2C00087C2C000872
:102E70007A2C0008902C00089E2C0008922C000848
:102E8000AE2C00089B2C0008982C0008AA2C0008E7
:102E9000952C0008B22C0008A22C0008A62C0008D3
:04000005080000B53A
:00000001FF
